:020000040000FA
:0400000000000428D0
:040004000034003490
:08000800831600308500003072
:1000100088000F3086000030890083122030850070
:100020000030880001308900EF308600061C352042
:10003000861C4120061D4D20861D5920DF3086007C
:10004000061C6520861C7120061D7D20861D8920CA
:10005000BF308600061C9520861CA120BF3086007C
:10006000061DA129861DA42114283F3088000030D8
:10007000A5000030890090229022902290229D229B
:100080000800063088000130A50000308900902269
:100090009022902290229D2208005B30880002303E
:1000A000A5000030890090229022902290229D226B
:1000B00008004F3088000330A500003089009022EE
:1000C0009022902290229D220800663088008408A9
:1000D000A5000030890090229022902290229D223B
:1000E00008006D3088008508A50000308900902246
:1000F0009022902290229D2208007D3088000630B8
:10010000A5000030890090229022902290229D220A
:100110000800073088000730A500003089009022D1
:100120009022902290229D2208007F308800083083
:10013000A5000030890090229022902290229D22DA
:100140000800673088000930A5000030890090223F
:100150009022902290229D220800003080002702E9
:100160000319BF210130800027020319CA21023080
:10017000800027020319D5210330800027020319CC
:10018000E0210430800027020319EB2105308000B4
:1001900027020319F62106308000270203190122E5
:1001A00007308000270203190C2208308000270244
:1001B00003191722093080002702031922220A306E
:1001C0008000270203192D220B308000270203191B
:1001D00038220C3080002702031943220D308000A2
:1001E000270203194E220E308000270203195922DC
:1001F0000F3080002702031964221030800027028C
:1002000003196F2211308000270203197A2212305D
:1002100080002702031985220800EF308600061CA3
:100220002921861C3521061D4121861D4D21DF30E7
:100230008600061C5921861C6521061D7121861D1C
:100240007D21BF308600061C8921861C9521A429AA
:1002500008003F3088000030A6000030890090225E
:100260009022902290229D220800063088000130C2
:10027000A6000030890090229022902290229D2298
:1002800008005B3088000230A60000308900902210
:100290009022902290229D2208004F308800033047
:1002A000A6000030890090229022902290229D2268
:1002B0000800663088000430A600003089009022D3
:1002C0009022902290229D2208006D3088000530F7
:1002D000A6000030890090229022902290229D2238
:1002E00008007D3088000630A6000030890090228A
:1002F0009022902290229D2208000730880007302B
:10030000A6000030890090229022902290229D2207
:1003100008007F3088000830A60000308900902255
:100320009022902290229D22080067308800093098
:10033000A6000030890090229022902290229D22D7
:1003400008000D29A921080025082607A700B421C7
:10035000080020308500773088009022103085001A
:100360007730880090220800203085007C3088009B
:100370009022103085007C308800902208002030C8
:1003800085003F3088009022103085003F30880083
:100390009022BF29203085003F3088009022103005
:1003A0008500063088009022CA29203085003F3021
:1003B00088009022103085005B3088009022D5297B
:1003C000203085003F3088009022103085004F306B
:1003D00088009022E029203085003F30880090225C
:1003E00010308500663088009022EB29203085008F
:1003F0003F3088009022103085006D3088009022B8
:10040000F629203085003F3088009022103085008A
:100410007D3088009022012A203085003F308800FE
:100420009022103085000730880090220C2A20305E
:1004300085003F3088009022103085007F30880092
:100440009022172A203085003F30880090221030FB
:100450008500673088009022222A203085000630EF
:1004600088009022103085003F30880090222D2A8D
:10047000203085000630880090221030850006303C
:1004800088009022382A203085000630880090228B
:10049000103085005B3088009022432A2030850090
:1004A000063088009022103085004F30880090225E
:1004B0004E2A2030850006308800902210308500BA
:1004C000663088009022592A203085000630880046
:1004D0009022103085006D3088009022642A2030F0
:1004E0008500063088009022103085007D3088001D
:1004F00090226F2A2030850006308800902210302C
:1005000085000730880090227A2A20308500063046
:1005100088009022103085007F3088009022852A44
:100520000130A1000130A0009822A10B922A0800FE
:1005300000000000A00B982A080001308900080084
:02400E00723FFF
:00000001FF
