:020000040000FA
:0400000000000428D0
:08000800831600308500003072
:1000100088000F3086000030890083122030850070
:10002000003088000130890016201428EF30860047
:10003000061C3520861C4120061D4D20861D59209A
:10004000DF308600061C6520861C7120061D7D2081
:10005000861D8920BF308600061C9520861CA120A5
:10006000BF308600061D542908003F30880000304C
:10007000A5000030890087218721872187219421CD
:100080000800063088000130A50000308900872173
:10009000872187218721942108005B308800023066
:1000A000A50000308900872187218721872194219D
:1000B00008004F3088000330A500003089008721F8
:1000C00087218721872194210800663088008408D1
:1000D000A50000308900872187218721872194216D
:1000E00008006D3088008508A50000308900872150
:1000F000872187218721942108007D3088000630E0
:10010000A50000308900872187218721872194213C
:100110000800073088000730A500003089008721DB
:10012000872187218721942108007F3088000830AB
:10013000A50000308900872187218721872194210C
:100140000800673088000930A50000308900872149
:10015000872187218721942108000530800027020C
:10016000031966210A30270203197C210F30270268
:1001700003195B2114302702031971210800EF30A5
:100180008600061CDB20861CE720061DF320861D4A
:10019000FF20DF308600061C0B21861C1721061D60
:1001A0002321861D2F21BF308600061C3B21861C83
:1001B0004721562908003F3088000030A600003053
:1001C0008900872187218721872194210800063013
:1001D00088000130A600003089008721872187210F
:1001E0008721942108005B3088000230A60000308F
:1001F00089008721872187218721942108004F309A
:1002000088000330A60000308900872187218721DC
:10021000872194210800663088000430A600003051
:1002200089008721872187218721942108006D304B
:1002300088000530A60000308900872187218721AA
:100240008721942108007D3088000630A600003008
:100250008900872187218721872194210800073081
:1002600088000730A6000030890087218721872178
:100270008721942108007F3088000830A6000030D4
:1002800089008721872187218721942108006730F1
:1002900088000930A6000030890087218721872146
:1002A00087219421BF280800BF28080025082607B9
:1002B000A700AD280800203085000630880087217F
:1002C000103085006D3088008721080020308500BF
:1002D0003F3088008721103085006D3088008721ED
:1002E0006629203085005B3088008721103085002A
:1002F0003F308800872108002030850006308800C4
:100300008721103085003F30880087210800503059
:10031000A1005030A0008F21A10B89290800000006
:0E0320000000A00B8F290800013089000800A2
:02400E00723FFF
:00000001FF
